S02400004932435F4C61625F333238505F436F6D5F50726F746575735F382E392E73726563BB
S11300000C9434000C9449000C9449000C9449005D
S11300100C9449000C9449000C9449000C94490038
S11300200C9449000C9449000C9449000C94490028
S11300300C9449000C9449000C9449000C94490018
S11300400C9449000C9449000C9449000C94490008
S11300500C9449000C9449000C9449000C944900F8
S11300600C9449000C94490011241FBECFEFD8E032
S1130070DEBFCDBF11E0A0E0B1E0E8E7F4E002C0EC
S113008005900D92A830B107D9F70E9459010C943C
S11300903A020C940000982F92959F70990F292F83
S11300A0220F220F920F8F70890F08959DEC899F64
S11300B0912D112496959695969520E1929FA001F5
S11300C01124990F292F220F220F920F891B842BA1
S11300D00895EF92FF921F93CF93DF931F92CDB7B2
S11300E0DEB77C0160E088E60E94C001182F8831E9
S11300F021F00E94E801812F59C080E00E94F001A4
S1130100182F883221F00E94E801812F4FC061E04E
S113011088E60E94C001182F803421F00E94E80173
S1130120812F44C0CE0101960E94FC0189818F7702
S11301300E944B00F7018083CE0101960E94FC01CE
S113014089810E944B00F7018183CE0101960E94B0
S1130150FC0189818F730E944B00F7018283CE01D9
S113016001960E94FC0189810E944B00F701838360
S1130170CE0101960E94FC0189810E944B00F70187
S11301808483CE0101960E94FC0189810E944B0068
S1130190F7018583CE0101960E940A0289810E949B
S11301A04B00F70186830E94E80180E00F90DF9105
S11301B0CF911F91FF90EF9008950F931F93CF93CA
S11301C08C0160E088E60E94C001C82F883121F0CC
S11301D00E94E8018C2F69C080E00E94F001C82FC2
S11301E0883221F00E94E8018C2F5FC0F8018081E1
S11301F00E9456008F770E94F001C82F883221F0A8
S11302000E94E8018C2F51C0F80181810E945600A0
S11302100E94F001C82F883221F00E94E8018C2F3F
S113022044C0F80182810E9456000E94F001C82F48
S1130230883221F00E94E8018C2F37C0F8018381B5
S11302400E9456000E94F001C82F883221F00E94BB
S1130250E8018C2F2AC0F80184810E9456000E9474
S1130260F001C82F883221F00E94E8018C2F1DC0B4
S1130270F80185810E9456000E94F001C82F88323F
S113028021F00E94E8018C2F10C0F80186810E94A1
S113029056000E94F001C82F883221F00E94E80124
S11302A08C2F03C00E94E80180E0CF911F910F9131
S11302B00895CF93DF93CDB7DEB72E970FB6F8949A
S11302C0DEBF0FBECDBF60E573EC80E090E00E941E
S11302D09A012FE789EA93E0215080409040E1F7AA
S11302E000C0000087E0E0E0F1E0DE01119601903B
S11302F00D928A95E1F7CE0101960E94DD002FEF61
S113030080E792E0215080409040E1F700C0000077
S1130310CE0108960E9469002FE58AEE90E02150F4
S113032080409040E1F700C00000F2CF8091B90016
S1130330887F08959B01AC01E9EBF0E080818C7F1C
S1130340808360E472E48FE090E00E941802DA0196
S1130350C9014097A109B109B695A79597958795C5
S11303608F3F9105A105B10529F020F08FEF90E0B2
S1130370A0E0B0E08093B80084E08093BC000895CE
S1130380CF93DF93C82FD62F84EA8093BC0080914B
S1130390BC008823E4F70E949601883011F0803174
S11303A0A1F48C2F90E0880F991F21E0D11101C096
S11303B020E0822B8093BB0084E88093BC00809172
S11303C0BC008823E4F70E949601DF91CF91089541
S11303D084E98093BC008091BC0084FDFCCF089527
S11303E08093BB0084E88093BC008091BC00882388
S11303F0E4F70E9496010895FC0184EC8093BC000C
S11304009091BC009923E4F78091BB0080830E9403
S113041096010895FC0184E88093BC009091BC008F
S11304209923E4F78091BB0080830E94960108958C
S1130430A1E21A2EAA1BBB1BFD010DC0AA1FBB1FE4
S1130440EE1FFF1FA217B307E407F50720F0A21B56
S1130450B30BE40BF50B661F771F881F991F1A94C3
S113046069F760957095809590959B01AC01BD01ED
S10B0470CF010895F894FFCFB9
S10B04780003090401011A004C
S9030000FC
